:100000000C94E7000C940F010C940F010C940F0159
:100010000C940F010C940F010C940F010C940F0120
:100020000C940F010C940F010C9440060C94B20632
:100030000C940F010C940F010C940F010C940F0100
:100040000C940F010C940F010C940F010C940F01F0
:100050000C940F010C940F010C940F010C94EF08F9
:100060000C940F010C940F010C940F010C940F01D0
:100070000C940F010C940F010C940F010C940F01C0
:100080000C940F010C940F010C940F010C940F01B0
:100090000C940F010C940F010C940F010C940F01A0
:1000A0000C940F010C940F010C940F013B013E01C5
:1000B0002D01310135015F015F015F014201460100
:1000C0004A01500154015F015A0100000000240060
:1000D00027002A002D003000080B00020202010058
:1000E000090400000102020000052400100105249B
:1000F000010101042402060524060001070581030D
:1001000010004009040100020A0000000705020275
:100110004000000705830240000004030904417207
:100120006475696E6F204C4C430041726475696E52
:100130006F204C656F6E6172646F001201000200E7
:10014000000040412336800001010203011201003A
:1001500002EF020140412336800001010203010049
:10016000000000250028002B002E003100040404AC
:10017000040403040502020202040302020202064E
:10018000060606060604040202020404040802012C
:1001900010408040102040804080080204018040D0
:1001A00020100201108010204040200000000200BA
:1001B000090F0000030401000C0000000000000013
:1001C000000000000000000000003909880A112426
:1001D0001FBECFEFDAE0DEBFCDBF11E0A0E0B1E09F
:1001E000E0EEF7E102C005900D92AA32B107D9F70F
:1001F00021E0AAE2B1E001C01D92A83CB207E1F7FC
:1002000010E0C6EED0E004C02197FE010E94A40ACF
:10021000C53ED107C9F70E9485090C94E30B0C94E5
:10022000000090E0FC01E555FE4F4491FC01E457CD
:10023000FE4F2491FC01E359FE4F8491882309F479
:100240004DC04423E1F150E0FA013197EF30F10560
:10025000B0F5EA5AFF4F0C94A40A909180009F7762
:1002600007C0909180009F7D03C090918000977F90
:100270009093800024C094B59F7702C094B59F7D71
:1002800094BD1DC0909190009F7707C09091900001
:100290009F7D03C090919000977F909390000FC036
:1002A0009091C0009F7703C09091C0009F7D909374
:1002B000C00005C09091C200977F9093C200E82FC4
:1002C000F0E0EE0FFF1FE15AFE4FA591B4918FB7FA
:1002D000F894EC9120952E232C938FBF0895FC0168
:1002E00080914901811103C08FEF9FEF08959FB75F
:1002F000F89482E08093E9002091F20030E0121639
:10030000130614F421E030E02115310559F0289846
:1003100084E6809348018091F10080838091F2000F
:10032000882319F09FBFC90108958BE68093E800E8
:10033000F9CFCF92DF92EF92FF920F931F93CF935B
:10034000DF936C017A018B01C0E0D0E0CE15DF05B0
:1003500089F0D8016D918D01D601ED91FC9101904C
:10036000F081E02DC6010995892B11F47E0102C0B0
:100370002196ECCFC701DF91CF911F910F91FF9094
:10038000EF90DF90CF9008958091400181110DC0D2
:1003900082E080933C0184E080933D0110923F0114
:1003A00010923E0181E0809340018CE391E008953A
:1003B000CF93DF931F92CDB7DEB76983DC01ED9158
:1003C000FC910280F381E02D41E050E0BE016F5FBF
:1003D0007F4F09950F90DF91CF91089583E080932F
:1003E000E9008091F200882319F08AE38093E80005
:1003F0000895CF93DF931F92CDB7DEB7FC018485BC
:10040000958597FD05C02FEF3FEF358724870BC0FB
:10041000CE0101960E946F01019719F4898190E045
:1004200002C08FEF9FEF0F90DF91CF9108950F9350
:100430001F93CF93DF931F92CDB7DEB78C01FC01E2
:100440008485958597FF0EC0CE0101960E946F01AD
:10045000019719F4298130E002C02FEF3FEFF80136
:1004600035872487F801848595850F90DF91CF919A
:100470001F910F910895FC018485958597FD0BC010
:100480009FB7F89482E08093E9008091F2009FBFCB
:1004900090E0019608959FB7F89482E08093E90078
:1004A0008091F2009FBF90E00895409136015091F5
:1004B0003701209134013091350142175307B4F4CC
:1004C0009091E8009570E1F39091E80092FD19C0D9
:1004D0008093F100809136019091370101968F73DE
:1004E0009927892B19F48EEF8093E80080913601CB
:1004F000909137010196909337018093360181E006
:10050000089580E00895CF92DF92EF92FF920F93CB
:100510001F93CF93DF931F92CDB7DEB7182F062F0F
:10052000E42E862F880F8E5F99830E94550283E008
:100530000E945502F12EC12E9981D92E8C2D8F1932
:10054000801798F4F601E7FE02C0849101C0808113
:100550000E945502182F80E00E9455028123FFEF70
:10056000CF1ADF0A8111EACF01C081E00F90DF913D
:10057000CF911F910F91FF90EF90DF90CF90089552
:10058000DF92EF92FF920F931F93CF93DF93D82EBA
:100590008A017B01E40EF51EEB01CE15DF0571F03B
:1005A000D7FE03C0FE01849101C088810E945502DC
:1005B00021968111F2CF8FEF9FEF01C0C801DF912B
:1005C000CF911F910F91FF90EF90DF9008950F93BF
:1005D0001F93CF93DF931F92CDB7DEB782E089835D
:1005E00042E450E068ED70E080E80E94C0020E94A2
:1005F000C401DC0112960D911C9113970115110590
:1006000069F0D801ED91FC910280F381E02DBE01EB
:100610006F5F7F4FC801099597FF07C089810F90D1
:10062000DF91CF911F910F910895F80100851185F9
:10063000E5CF615030F02091F100FC01208301965C
:10064000F8CF289884E6809348010895CF93DF93EC
:1006500090E0FC01E457FE4F2491FC01E359FE4F6A
:100660008491882361F190E0880F991FFC01E65383
:10067000FF4FC591D491FC01E15AFE4FA591B49171
:10068000611109C09FB7F8948881209582238883DF
:10069000EC912E230BC0623061F49FB7F89438813F
:1006A000822F809583238883EC912E2B2C939FBFE0
:1006B00006C08FB7F894E8812E2B28838FBFDF9177
:1006C000CF9108953FB7F89480912F019091300118
:1006D000A0913101B091320126B5A89B05C02F3FF2
:1006E00019F00196A11DB11D3FBFBA2FA92F982F58
:1006F0008827820F911DA11DB11DBC01CD0142E0D3
:10070000660F771F881F991F4A95D1F708958F921A
:100710009F92AF92BF92CF92DF92EF92FF926B01C6
:100720007C010E9462034B015C01C114D104E1040D
:10073000F104F1F00E946203DC01CB0188199909F0
:10074000AA09BB09883E9340A105B10570F321E0D9
:10075000C21AD108E108F10888EE880E83E0981EDD
:10076000A11CB11CC114D104E104F10419F7DDCFBF
:10077000FF90EF90DF90CF90BF90AF909F908F90C1
:1007800008958F929F92AF92BF92CF92DF92EF9295
:10079000FF920F931F93CF93DF935C016B018A014C
:1007A00080910B01882309F45EC080914901882360
:1007B00009F459C080913B0180FF05C08091E000A1
:1007C00082608093E000E8018AEFF82E93E0E92E42
:1007D0002FE3822E3AE3932E209709F43DC08FB782
:1007E000F894E092E9009091E80095FF06C090919E
:1007F000F200282D291B922F01C090E08FBF91118C
:100800000AC0FA94FF2079F161E070E080E090E0A6
:100810000E948703E1CF292F30E0C217D3070CF4E1
:100820009C2F8FB7F894E092E9002091E80025FF13
:1008300011C0292F30E0C21BD30BF601915020F0DC
:1008400041914093F100FACFC20ED31E9091E8007F
:1008500095FF13C08FBFC0CF5D9884E680933A01A7
:100860001016110644F081E090E0F5019383828335
:1008700080E090E005C0C80103C09092E800EACF94
:10088000DF91CF911F910F91FF90EF90DF90CF906C
:10089000BF90AF909F908F9008958F929F92AF924C
:1008A000BF92CF92DF92EF92FF920F931F93CF935D
:1008B000DF93FC014A01AA24BB24B82DC32ED42EF9
:1008C000E52EFF24AC2D922F8781882361F0889E2E
:1008D00040011124B92DC89E60011124AD2D289F1F
:1008E000E00111249D2FD584C285E084F184DC12BF
:1008F00008C09B01220F331F620F731F6E0D7F1DF7
:1009000016C0660F771F660F771F6E0D7F1D052FB0
:10091000112722273327EB01CD0DD11D882329F084
:10092000089F90011124232F01C0202F2883828546
:10093000EB01C80FD11DB8838385EB01C80FD11D12
:10094000A8838485FB01E80FF11D9083DF91CF918F
:100950001F910F91FF90EF90DF90CF90BF90AF90DD
:100960009F908F9008951F93CF93DF93EC01162FE4
:100970008981882331F08E8187FD03C060E00E9469
:1009800026031E838981882339F061E0812F0E942C
:100990002603812F0E941101812F90E0FC01E35971
:1009A000FE4FE491F0E0EE0FFF1FE15AFE4F25915C
:1009B00034913B8B2A8BFC01E457FE4FE491EC8B86
:1009C000DF91CF911F910895CF92DF92EF92FF9226
:1009D0000F931F93CF93DF93CDB7DEB729970FB651
:1009E000F894DEBF0FBECDBF8C01DC0118968D914F
:1009F0009C911997892B09F49EC00E946203F8010B
:100A0000C684D784E088F188DC01CB018C199D096C
:100A1000AE09BF09C297A105B10578F3F8948481A6
:100A200095819A8389830084F185E02D7F01BFEF52
:100A3000EB1AFB0A80818987F80190810288F3898B
:100A4000E02DD80154968C91992309F430C09081FF
:100A5000982B98879081809589238F838F818C83B1
:100A600088E08B8358856F8149853B812C81898102
:100A70009A81D701508347FD252F3A952083262F51
:100A800039F0441F00C000006083000000C0F2CFB6
:100A900038E04D9160830000019761F7D8015396CB
:100AA000FC93EE93529749873B832C833AC0908105
:100AB000982B98879081809589238F838F818E834F
:100AC00088E08D8358856F8149853D812E8189819C
:100AD0009A81D701508347FD252F00C000C0208395
:100AE00000C000C000C000C000C060830000262F0E
:100AF0003A9541F0441F000000C000C000C000C093
:100B000000C0E8CF38E04D9100C0608300C001977D
:100B100009F7D8015396FC93EE93529749873D838A
:100B20002E839A83898378940E946203F8016687F2
:100B30007787808B918B29960FB6F894DEBF0FBE16
:100B4000CDBFDF91CF911F910F91FF90EF90DF907C
:100B5000CF900895CF93DF93EC018E8187FD06C07F
:100B600061E00E9426038E810E94110181E0898349
:100B7000DF91CF9108950F931F938095853560F491
:100B8000682F660F860F282F209590E0A0E0B0E038
:100B9000BC01CD01822B21C08A3A80F48555982F63
:100BA000990F980F692F6095462F50E060E070E034
:100BB0008A019B01192BC901B8010FC08A5A682FFD
:100BC000660F860F282F209590E0A0E0B0E0DC01B2
:100BD00099278827BC01CD01722B1F910F91089591
:100BE0000E94D70BEF92FF920F931F93CF93DF9347
:100BF000EC017B0188859985009711F00E943F0BDD
:100C00009D858A85981719F084E090E002C083E002
:100C100090E08E9D80018F9D100D9E9D100D1124E2
:100C20001D830C83C8010E94AA0A998788870097B0
:100C300041F0A80160E070E00E94DC0BFB82EA82D8
:100C400004C01D821C821B821A82DF91CF911F91EA
:100C50000F91FF90EF900895CF93DF93EC0188857B
:100C60009985009711F00E943F0B8E8187FD05C08A
:100C700060E0DF91CF910C942603DF91CF9108952E
:100C80001F920F920FB60F9211248F939F93809112
:100C9000E1009091E100937F9093E10083FF0FC00A
:100CA0001092E90091E09093EB001092EC0092E337
:100CB0009093ED001092490198E09093F00082FF2C
:100CC00020C093E09093E9009091F200992319F0ED
:100CD0009AE39093E80090913A01992339F090912A
:100CE0003A01915090933A01992389F190914801EA
:100CF000992339F09091480191509093480199239C
:100D000041F184FF10C08091E2008E7E816080936B
:100D1000E2008091E1008F7E8093E10080913B01B1
:100D20008E7E806111C080FF16C08091E2008E7EB1
:100D300080618093E2008091E1008E7E8093E100EB
:100D400080913B018E7E816080933B0104C05D9A5F
:100D5000CDCF289AD6CF9F918F910F900FBE0F9035
:100D60001F9018951F920F920FB60F921124CF92D9
:100D7000DF92EF92FF920F931F932F933F934F9326
:100D80005F936F937F938F939F93AF93BF93EF93F3
:100D9000FF93CF93DF93CDB7DEB76C97DEBFCDBFA8
:100DA0001092E9008091E80083FFFAC168E0CE016B
:100DB00045960E94190382EF8093E8008D8987FF92
:100DC00005C09091E80090FFFCCF03C09EEF909388
:100DD000E800982F907609F0C6C09E892F89188D5B
:100DE00091110CC0803829F4809139018093F10071
:100DF00002C01092F1001092F10047C1422F50E062
:100E0000512B913051F4811140C14130510509F00D
:100E10003CC1809139018D7F0BC0933061F4811109
:100E200034C14130510509F030C1809139018260EF
:100E3000809339012AC1953041F48091E80080FF08
:100E4000FCCF20682093E30020C1963009F05FC0FA
:100E5000EB8CFC8C1092E900109237011092360155
:100E6000123091F510923501109234010E94E70280
:100E700099E0BE016F5F7F4FDB01E92F1D92EA957C
:100E8000E9F799831A8391E09E8390EA98879AEF15
:100E900099872091360130913701275F3F4F3C837E
:100EA0002B838D831092E900109237011092360146
:100EB000F0923501E092340149E050E080E00E9478
:100EC000C0020E94E702E1C0F0923501E0923401D5
:100ED0000E94C401DC011296ED90FC901397E1147E
:100EE000F10409F4C0C0D701ED91FC910480F581B3
:100EF000E02DBE016B5E7F4FC7010995009719F089
:100F00000CF0C3C0C6C0F701E084F184E8CF97308D
:100F100009F4BFC0983021F481E08093F100B5C09E
:100F2000993009F0B2C0837009F0B3C0E3E1F1E099
:100F300081E021E036E39081992361F08093E9001C
:100F40002093EB0091919093EC003093ED008F5F34
:100F5000873089F78EE78093EA001092EA008F8944
:100F60008093490192C08B8D9C8D1092E900109264
:100F70003701109236019093350180933401898DA9
:100F8000811156C08E899D89913A59F4813209F0B8
:100F900080C047E050E064E071E080E00E94C00261
:100FA00074C0913209F075C0833289F4888D90E065
:100FB000982F88272F89822BA0E0B0E08093000132
:100FC00090930101A0930201B09303015EC08032AF
:100FD00069F48091E80082FFFCCF67E084E091E053
:100FE0000E9419038BEF8093E80006C0823209F05B
:100FF0004CC08F8980930B0180913801882319F0B0
:10100000EEEFFAE002C0E0E0F8E080910401909198
:101010000501A0910601B0910701803B9440A10514
:10102000B10509F088C080910B0180FFA0C083C08A
:101030000E94C401DC0112960D911C9113970115B9
:10104000110539F1D801ED91FC910190F081E02D6D
:10105000BE016B5E7F4FC8010995811116C0F80172
:1010600000851185ECCF1130C1F0133091F48F89D8
:10107000882309F455C08230E9F440E860E18AE24F
:1010800091E00E948302882321F08EEF8093E80094
:1010900087C081E28093EB0083C08B8D9C8D089785
:1010A00011F41093330180913301811136C06BE349
:1010B00071E038C0813029F440E86BE08EE191E0C6
:1010C000E0CF833031F70E94C401DC011296ED902D
:1010D000FC9013978E010F5F1F4F6801E114F1041C
:1010E00079F0D701ED91FC910680F781E02DB801F0
:1010F000C7010995080F111DF701E084F184EECFB7
:10110000D8011C92F60101900020E9F73197BF0148
:101110006C197D0940E0C601B4CF6DE471E002C0F6
:101120006AE171E06115710509F4B3CFFB014491E7
:1011300050E080E833CF0FB6F894A8958091600016
:10114000886180936000109260000FBEA895EE3F0A
:101150002AE0F20739F08091FE0A9091FF0A91830C
:10116000808393CF1092FF0A1092FE0A8ECFEE3F3B
:101170008AE0F80731F0808191819093FF0A809393
:10118000FE0A87E797E7918380839BE088E10FB6AB
:10119000F894A895809360000FBE9093600075CF7F
:1011A0006C960FB6F894DEBF0FBECDBFDF91CF9126
:1011B000FF91EF91BF91AF919F918F917F916F912F
:1011C0005F914F913F912F911F910F91FF90EF9061
:1011D000DF90CF900F900FBE0F901F9018951F9229
:1011E0000F920FB60F9211242F933F938F939F93DB
:1011F000AF93BF9380912B0190912C01A0912D0171
:10120000B0912E0130912A0123E0230F2D3720F4D5
:101210000196A11DB11D05C026E8230F0296A11D50
:10122000B11D20932A0180932B0190932C01A09350
:101230002D01B0932E0180912F0190913001A0914A
:101240003101B09132010196A11DB11D80932F0192
:1012500090933001A0933101B0933201BF91AF91CF
:101260009F918F913F912F910F900FBE0F901F90E4
:101270001895CF93DF93EAE4F1E01382128288EEAF
:1012800093E0A0E0B0E084839583A683B7838DE1EB
:1012900091E0918380838FEF9FEF95878487EFEABA
:1012A000F1E0118217821186108616861786108A41
:1012B000118AC1E0C587C2871386D2E0D487C08374
:1012C00067E370E0CF010E94F20566E08FEA91E0EB
:1012D0000E94B304EAE9F1E01182178211861086B8
:1012E00016861786108A118AC587C2871386D48707
:1012F000C08367E370E0CF010E94F20564E08AE9F1
:1013000091E0DF91CF910C94B304789484B582601E
:1013100084BD84B5816084BD85B5826085BD85B599
:10132000816085BD80916E00816080936E00109217
:101330008100809181008260809381008091810092
:101340008160809381008091800081608093800023
:1013500080919100826080939100809191008160E2
:1013600080939100809190008160809390008091A3
:10137000C10084608093C1008091C100826080932D
:10138000C1008091C10081608093C1008091C30041
:1013900081608093C3008091C00082608093C00010
:1013A0008091C20081608093C20080917A00846045
:1013B00080937A0080917A00826080937A00809195
:1013C0007A00816080937A0080917A0080688093AF
:1013D0007A00109249011092390110923B018091DC
:1013E000D70081608093D70080EA8093D80089B5C8
:1013F000806189BD89B5826089BD09B400FEFDCFD9
:1014000061E070E080E090E00E9487038091D80066
:101410008F7C80618093D8008091E000807F8093F2
:10142000E0008091E1008E7E8093E1008DE080936A
:10143000E200559A209AEEEFFFE7859194918B3F59
:101440009C4D19F481E0809338018FEA91E00E946D
:10145000AA058AE991E00E94AA058AE991E00E9422
:10146000E4048FEA91E00E94E40480E0A82E80E08A
:10147000B82E00E010E0E12CF12CC0E0D0E060914B
:10148000B1017091B201C617D70738F5C7010E94A4
:10149000900A802F860F0E94BB059B01AC01BE0104
:1014A0008FEA91E00E944D04C0909C01D0909D0174
:1014B000C701B6010E94900A802F860F0E94BB05CB
:1014C0009B01AC01CC15DD0528F4BE018AE991E051
:1014D0000E944D042196F394D2CF8FEA91E00E94AE
:1014E000E4048AE991E00E94E40460E070E0CB014A
:1014F0000E9487030F5F1F4F011525E0120709F0B7
:10150000BACFA114B10409F4B4CF0E940000B1CF46
:101510008AE991E00E942C068FEA91E00C942C0657
:10152000AA1BBB1B51E107C0AA1FBB1FA617B70709
:1015300010F0A61BB70B881F991F5A95A9F7809525
:101540009095BC01CD010895EE0FFF1F0590F49119
:10155000E02D0994CF93DF938230910510F482E05F
:1015600090E0E091C601F091C70120E030E0C0E0DA
:10157000D0E0309711F14081518148175907C0F0F0
:101580004817590761F482819381209719F09B8352
:101590008A832BC09093C7018093C60126C0211572
:1015A000310519F04217530718F49A01BE01DF0103
:1015B000EF010280F381E02DDCCF2115310509F127
:1015C000281B390B2430310590F412968D919C9193
:1015D00013976115710521F0FB019383828304C089
:1015E0009093C7018093C601FD01329644C0FD016E
:1015F000E20FF31F81939193225031092D933C9375
:101600003AC02091C4013091C501232B41F42091AF
:101610000E0130910F013093C5012093C401209138
:101620000C0130910D012115310541F42DB73EB764
:101630004091100150911101241B350BE091C40120
:10164000F091C501E217F307A0F42E1B3F0B2817FA
:10165000390778F0AC014E5F5F4F2417350748F02B
:101660004E0F5F1F5093C5014093C4018193919326
:1016700002C0E0E0F0E0CF01DF91CF9108950F9339
:101680001F93CF93DF93009709F48CC0FC0132972E
:10169000138212820091C6011091C7010115110534
:1016A00081F420813181820F931F2091C4013091F8
:1016B000C5012817390779F5F093C501E093C401F6
:1016C00071C0D80140E050E0AE17BF0750F4129649
:1016D0002D913C911397AD012115310509F1D901E7
:1016E000F3CF9D01DA013383228360817181860FFC
:1016F000971F8217930769F4EC0128813981260F1F
:10170000371F2E5F3F4F318320838A819B819383D4
:101710008283452B29F4F093C701E093C60142C0B0
:101720001396FC93EE931297ED01499159919E0106
:10173000240F351FE217F30771F480819181840F24
:10174000951F029611969C938E9382819381139696
:101750009C938E931297E0E0F0E0D80112968D9161
:101760009C911397009719F0F8018C01F6CF8D9199
:101770009C9198012E5F3F4F820F931F2091C401CF
:101780003091C5012817390769F4309729F4109270
:10179000C7011092C60102C0138212821093C501C4
:1017A0000093C401DF91CF911F910F91089581E0C3
:1017B00090E0F8940C94E30BDC0101C06D93415070
:1017C0005040E0F7089510E0C6EED0E004C0FE01FE
:1017D0000E94A40A2196C73ED107C9F7F894FFCF0B
:1017E000FFFFFFFF00E10000000000000000C80153
:1017F000800000C1808100000000000000D801C10D
:10180000033B02F9011702EE0100FFFFFFFFFFFF9C
:10181000FFFFFFFFFFFFFFFFFFFFFFFFFFFFFFFFD8
:10182000FFFFFFFFFFFFFFFFFFFFFFFFFFFFFFFFC8
:10183000FFFFFFFFFFFFFFFFFFFFFFFFFFFFFFFFB8
:10184000FFFFFFFFFFFFFFFFFFFFFFFFFFFFFFFFA8
:10185000FFFFFFFFFFFFFFFFFFFFFFFFFFFFFFFF98
:10186000FFFFFFFFFFFFFFFFFFFFFFFFFFFFFFFF88
:10187000FFFFFFFFFFFFFFFFFFFFFFFFFFFFFFFF78
:10188000BF0750F412962D913C911397AD0121158D
:10189000310509F1D901F3CF9D01DA0133832283A8
:1018A00060817181860F971F8217930769F4EC019D
:1018B00028813981260F371F2E5F3F4F31832083C8
:1018C0008A819B8193838283452B29F4F093C701FE
:1018D000E093C60142C01396FC93EE931297ED017C
:1018E000499159919E01240F351FE217F30771F4B6
:1018F00080819181840F951F029611969C938E93FF
:101900008281938113969C938E931297E0E0F0E08E
:10191000D80112968D919C911397009719F0F801B8
:101920008C01F6CF8D919C9198012E5F3F4F820FD5
:10193000931F2091C4013091C5012817390769F41C
:10194000309729F41092C7011092C60102C0138289
:1019500012821093C5010093C401DF91CF911F91B2
:101960000F91089581E090E0F8940C94BE0CDC0196
:1019700001C06D9341505040E0F7089510E0C6EE6D
:10198000D0E004C0FE010E947F0B2196C73ED10724
:10199000C9F7F894FFCFFFFFFFFF00E10000000050
:1019A00000000000C801800000C18081000000002C
:1019B000000000B106D20611013B025902C7060021
:1019C000FFFFFFFFFFFFFFFFFFFFFFFFFFFFFFFF27
:1019D000FFFFFFFFFFFFFFFFFFFFFFFFFFFFFFFF17
:1019E000FFFFFFFFFFFFFFFFFFFFFFFFFFFFFFFF07
:1019F000FFFFFFFFFFFFFFFFFFFFFFFFFFFFFFFFF7
:101A0000762F05C0662371F096E8862F70E060E0BF
:101A10002AF09A95660F771F881FDAF7880F969538
:101A2000879597F9089597F99F6780E870E060E0DF
:101A300008959FEF80EC089500240A941616170667
:101A400018060906089500240A94121613061406AF
:101A500005060895092E0394000C11F4882352F012
:101A6000BB0F40F4BF2B11F460FF04C06F5F7F4FCA
:101A70008F4F9F4F089557FD9058440F551F59F0B1
:101A80005F3F71F04795880F97FB991F61F09F3F6B
:101A900079F087950895121613061406551FF2CF94
:101AA0004695F1DF08C0161617061806991FF1CFE4
:101AB00086957105610508940895E894BB2766270B
:101AC0007727CB0197F90895052E97FB1EF4009414
:101AD0000E947B0D57FD07D00E94960D07FC03D096
:101AE0004EF40C947B0D50954095309521953F4FC9
:101AF0004F4F5F4F089590958095709561957F4FFA
:101B00008F4F9F4F08950E94B80DA59F900DB49FD1
:101B1000900DA49F800D911D11240895B7FF0C9482
:101B2000830D0E94830D821B930B0895A1E21A2E50
:101B3000AA1BBB1BFD010DC0AA1FBB1FEE1FFF1F71
:101B4000A217B307E407F50720F0A21BB30BE40BC1
:101B5000F50B661F771F881F991F1A9469F7609508
:101B60007095809590959B01AC01BD01CF010895C2
:101B7000A29FB001B39FC001A39F700D811D1124CE
:101B8000911DB29F700D811D1124911D089510E0CB
:101B9000C6EED0E004C0FE010E949F0A2196C73E17
:101BA000D107C9F7F894FFCFFFFFFFFF00E1000066
:101BB000000000000000C10180000100000000C121
:101BC000808100000000000000EA02C1044D030B08
:101BD000032903000300FFFFFFFFFFFFFFFFFFFFDD
:101BE000FFFFFFFFFFFFFFFFFFFFFFFFFFFFFFFF05
:101BF000FFFFFFFFFFFFFFFFFFFFFFFFFFFFFFFFF5
:101C0000A02DB3CF8091CF019091D0018815990577
:101C1000E1F446175707C8F480910C0190910D012B
:101C2000009741F48DB79EB740911001509111017A
:101C3000841B950BE817F907C8F4F093D001E093E3
:101C4000CF01F901718360830FC0CB010E94460C64
:101C50007C01009759F0A801BE010E94420ECE01FE
:101C60000E94DB0CC70104C0CE0102C080E090E0FE
:101C7000CDB7DEB7EEE00C94970F81E090E0F894DA
:101C80000C94DF0FFB01DC0102C001900D9241506A
:101C90005040D8F70895FB01DC018D910190801927
:101CA0000110D9F3990B0895FB01DC0101900D920D
:101CB0000020E1F708958F929F92AF92BF92CF924A
:101CC000DF92EF92FF92CF93DF93EC0168817981ED
:101CD0008A819B81611571058105910521F464E27A
:101CE00079ED8BE597E02DE133EF41E050E00E9484
:101CF000450F49015A019B01AC01A7EAB1E40E94DA
:101D0000640F6B017C01ACEEB4EFA50194010E945D
:101D1000720FDC01CB018C0D9D1DAE1DBF1DB7FFE9
:101D200003C00197A109B04888839983AA83BB8324
:101D30009F77DF91CF91FF90EF90DF90CF90BF9092
:101D4000AF909F908F9008950E945B0E089582E15E
:101D500091E00E945B0E0895A0E0B0E08093120134
:101D600090931301A0931401B09315010895E89482
:101D700009C097FB3EF490958095709561957F4FD3
:101D80008F4F9F4F9923A9F0F92F96E9BB27939581
:101D9000F695879577956795B795F111F8CFFAF491
:101DA000BB0F11F460FF1BC06F5F7F4F8F4F9F4FC2
:101DB00016C0882311F096E911C0772321F09EE820
:101DC000872F762F05C0662371F096E8862F70E086
:101DD00060E02AF09A95660F771F881FDAF7880F60
:101DE0009695879597F9089597F99F6780E870E031
:101DF00060E008959FEF80EC089500240A94161681
:101E0000170618060906089500240A9412161306E8
:101E1000140605060895092E0394000C11F4882376
:101E200052F0BB0F40F4BF2B11F460FF04C06F5F92
:101E30007F4F8F4F9F4F089557FD9058440F551F68
:101E400059F05F3F71F04795880F97FB991F61F03C
:101E50009F3F79F087950895121613061406551FB3
:101E6000F2CF4695F1DF08C0161617061806991F1F
:101E7000F1CF86957105610508940895E894BB2714
:101E800066277727CB0197F90895052E97FB1EF457
:101E900000940E945C0F57FD07D00E94AE0F07FC14
:101EA00003D04EF40C945C0F5095409530952195DD
:101EB0003F4F4F4F5F4F0895909580957095619576
:101EC0007F4F8F4F9F4F08950E94D00FA59F900D79
:101ED000B49F900DA49F800D911D11240895B7FF0C
:101EE0000C94640F0E94640F821B930B08952F9231
:101EF0003F924F925F926F927F928F929F92AF929A
:101F0000BF92CF92DF92EF92FF920F931F93CF93E6
:101F1000DF93CDB7DEB7CA1BDB0B0FB6F894DEBF7D
:101F20000FBECDBF09942A88398848885F846E84A3
:101F30007D848C849B84AA84B984C884DF80EE80ED
:101F4000FD800C811B81AA81B981CE0FD11D0FB6F6
:101F5000F894DEBF0FBECDBFED010895A1E21A2EA9
:101F6000AA1BBB1BFD010DC0AA1FBB1FEE1FFF1F3D
:101F7000A217B307E407F50720F0A21BB30BE40B8D
:101F8000F50B661F771F881F991F1A9469F76095D4
:101F90007095809590959B01AC01BD01CF0108958E
:101FA000A29FB001B39FC001A39F700D811D11249A
:101FB000911DB29F700D811D1124911D089510E097
:101FC000C6EED0E004C0FE010E949D0B2196C73EE4
:101FD000D107C9F7F894FFCFFFFFFFFF00E1000032
:101FE000000000000000D70180000100000000C1D7
:101FF000808100000000000000DB01D405FC0148E6
:10200000026602F10172657365740052657365744E
:1020100020636F6D706C6574652E0000FFFFFFFF1D
:10202000FFFFFFFFFFFFFFFFFFFFFFFFFFFFFFFFC0
:10203000FFFFFFFFFFFFFFFFFFFFFFFFFFFFFFFFB0
:10204000FFFFFFFFFFFFFFFFFFFFFFFFFFFFFFFFA0
:10205000FFFFFFFFFFFFFFFFFFFFFFFFFFFFFFFF90
:10206000FFFFFFFFFFFFFFFFFFFFFFFFFFFFFFFF80
:10207000FFFFFFFFFFFFFFFFFFFFFFFFFFFFFFFF70
:10208000AC01232B41F420910201309103013093E4
:10209000AC012093AB012091000130910101211589
:1020A000310541F42DB73EB740910401509105012F
:1020B000241B350BE091AB01F091AC01E217F30763
:1020C000A0F42E1B3F0B2817390778F0AC014E5FA8
:1020D0005F4F2417350748F04E0F5F1F5093AC0138
:1020E0004093AB018193919302C0E0E0F0E0CF0117
:1020F000DF91CF910895CF93DF93009709F487C0C4
:10210000FC01329713821282C091AD01D091AE01D1
:10211000209781F420813181280F391F8091AB01F4
:102120009091AC018217930779F5F093AC01E0939D
:10213000AB016DC0DE0120E030E0AE17BF0750F408
:1021400012964D915C9113979D014115510509F12E
:10215000DA01F3CFB383A28340815181840F951FAD
:102160008A179B0771F48D919C911197840F951F8D
:1021700002969183808312968D919C9113979383FD
:1021800082832115310529F4F093AE01E093AD016E
:102190003EC0D9011396FC93EE9312974D915D9139
:1021A000A40FB51FEA17FB0779F480819181840F92
:1021B000951F0296D90111969C938E9382819381EB
:1021C00013969C938E931297E0E0F0E08A819B81B6
:1021D000009719F0FE01EC01F9CFCE01029628819B
:1021E0003981820F931F2091AB013091AC012817E8
:1021F000390769F4309729F41092AE011092AD01BD
:1022000002C013821282D093AC01C093AB01DF9164
:10221000CF910895DC0101C06D9341505040E0F72B
:102220000895F894FFCF0000AF01800000C18081C5
:10223000000000FFFFFFFF00E100000000000000C1
:102240000000009B0BE20BC50BD50BB10BC20B00C2
:10225000FFFFFFFFFFFFFFFFFFFFFFFFFFFFFFFF8E
:10226000FFFFFFFFFFFFFFFFFFFFFFFFFFFFFFFF7E
:10227000FFFFFFFFFFFFFFFFFFFFFFFFFFFFFFFF6E
:10228000BB0F661F771F881F28F0B23A62077307DB
:10229000840728F0B25A620B730B840BE3959A956E
:1022A00072F7803830F49A95BB0F661F771F881F2E
:1022B000D2F7904813C0EF93E0FF06C0A2EA2AEDE0
:1022C0003FE049EC5FEBC9DD03DF0F90039401FCB5
:1022D0009058EAECF0E00EC09F3F31F0915020F4AE
:1022E000879577956795B795880F911D96958795F2
:1022F00097F908959F938F937F936F93FF93EF9335
:102300009B01AC0123DFEF91FF9105D02F913F910D
:102310004F915F911BCFDF93CF931F930F93FF924A
:10232000EF92DF927B018C01689405C0DA2EEF01F9
:1023300019DFFE01E894A5912591359145915591BC
:10234000AEF3EF018ADDFE019701A801DA9479F777
:10235000DF90EF90FF900F911F91CF91DF91089543
:10236000AA1BBB1B51E107C0AA1FBB1FA617B707BB
:1023700010F0A61BB70B881F991F5A95A9F78095D7
:102380009095BC01CD010895EE0FFF1F0590F491CB
:10239000E02D0994CF93DF938230910510F482E011
:1023A00090E0E091AD01F091AE0120E030E0A0E0DE
:1023B000B0E0309739F14081518148175907B8F0A2
:1023C0004817590771F482819381109729F0139669
:1023D0009C938E9312972CC09093AE018093AD0185
:1023E00027C02115310531F04217530718F0A90114
:1023F000DB0101C0EF019A01BD01DF010280F38121
:10240000E02DD7CF21153105F9F0281B390B2430E9
:10241000310580F48A819B816115710521F0FB01F2
:102420009383828304C09093AE018093AD01FE013B
:10243000329644C0FE01E20FF31F81939193225024
:102440003109398328833AC02091AB013091AC0126
:10245000232B41F420910201309103013093AC0110
:102460002093AB012091000130910101211531052C
:1024700041F42DB73EB74091040150910501241B52
:10248000350BE091AB01F091AC01E217F307A0F43A
:102490002E1B3F0B2817390778F0AC014E5F5F4FBA
:1024A0002417350748F04E0F5F1F5093AC0140933F
:1024B000AB018193919302C0E0E0F0E0CF01DF91A6
:1024C000CF910895CF93DF93009709F487C0FC0163
:1024D000329713821282C091AD01D091AE01209744
:1024E00081F420813181280F391F8091AB019091B7
:1024F000AC018217930779F5F093AC01E093AB013F
:102500006DC0DE0120E030E0AE17BF0750F4129638
:102510004D915C9113979D014115510509F1DA0127
:10252000F3CFB383A28340815181840F951F8A1713
:102530009B0771F48D919C911197840F951F0296C2
:102540009183808312968D919C91139793838283BC
:102550002115310529F4F093AE01E093AD013EC0A1
:10256000D9011396FC93EE9312974D915D91A40FB0
:10257000B51FEA17FB0779F480819181840F951FBD
:102580000296D90111969C938E9382819381139622
:102590009C938E931297E0E0F0E08A819B810097F4
:1025A00019F0FE01EC01F9CFCE01029628813981A4
:1025B000820F931F2091AB013091AC01281739078E
:1025C00069F4309729F41092AE011092AD0102C067
:1025D00013821282D093AC01C093AB01DF91CF91F3
:1025E0000895DC0101C06D9341505040E0F708951B
:1025F000F894FFCF0000AF01800000C1808100008F
:1026000000FFFFFFFF00E1000000000000000000ED
:1026100000820DC90DAC0DBC0D980DA90D00FFFF7A
:10262000FFFFFFFFFFFFFFFFFFFFFFFFFFFFFFFFBA
:10263000FFFFFFFFFFFFFFFFFFFFFFFFFFFFFFFFAA
:10264000FFFFFFFFFFFFFFFFFFFFFFFFFFFFFFFF9A
:10265000FFFFFFFFFFFFFFFFFFFFFFFFFFFFFFFF8A
:10266000FFFFFFFFFFFFFFFFFFFFFFFFFFFFFFFF7A
:10267000FFFFFFFFFFFFFFFFFFFFFFFFFFFFFFFF6A
:10268000A395D2F3002069F0220F331F441FB395A6
:10269000DAF30DD0D6CC61307105A0E88A07B946CF
:1026A00030F49B01AC016627772788279078309615
:1026B00021F0208331834283538308959F3F31F07B
:1026C000915020F4879577956795B795880F911D60
:1026D0009695879597F90895EE0FFF1F0590F49151
:1026E000E02D0994EF920F931F93CF93DF93E801AE
:1026F00047FF02C034E101C034E0E42FFF27E7FDCB
:10270000F095F7FF03C0F195E195F109E32E022F53
:102710002E2FAE010E94AF15CE01DF91CF911F91F8
:102720000F91EF900895CF93DF938230910510F4CD
:1027300082E090E0E091BE01F091BF0120E030E046
:10274000A0E0B0E0309739F1408151814817590736
:10275000B8F04817590771F482819381109729F0D6
:1027600013969C938E9312972CC09093BF018093E5
:10277000BE0127C02115310531F04217530718F06B
:10278000A901DB0101C0EF019A01BD01DF01028057
:10279000F381E02DD7CF21153105F9F0281B390B36
:1027A0002430310580F48A819B816115710521F007
:1027B000FB019383828304C09093BF018093BE0189
:1027C000FE01329644C0FE01E20FF31F8193919304
:1027D00022503109398328833AC02091BC013091BD
:1027E000BD01232B41F4209102013091030130936C
:1027F000BD012093BC012091000130910101211500
:10280000310541F42DB73EB74091040150910501C7
:10281000241B350BE091BC01F091BD01E217F307D9
:10282000A0F42E1B3F0B2817390778F0AC014E5F40
:102830005F4F2417350748F04E0F5F1F5093BD01BF
:102840004093BC018193919302C0E0E0F0E0CF019E
:10285000DF91CF910895CF93DF93009709F487C05C
:10286000FC01329713821282C091BE01D091BF0148
:10287000209781F420813181280F391F8091BC017C
:102880009091BD018217930779F5F093BD01E09314
:10289000BC016DC0DE0120E030E0AE17BF0750F490
:1028A00012964D915C9113979D014115510509F1C7
:1028B000DA01F3CFB383A28340815181840F951F46
:1028C0008A179B0771F48D919C911197840F951F26
:1028D00002969183808312968D919C911397938396
:1028E00082832115310529F4F093BF01E093BE01E5
:1028F0003EC0D9011396FC93EE9312974D915D91D2
:10290000A40FB51FEA17FB0779F480819181840F2A
:10291000951F0296D90111969C938E938281938183
:1029200013969C938E931297E0E0F0E08A819B814E
:10293000009719F0FE01EC01F9CFCE010296288133
:102940003981820F931F2091BC013091BD0128175E
:10295000390769F4309729F41092BF011092BE0133
:1029600002C013821282D093BD01C093BC01DF91DB
:10297000CF910895A0E0B0E0E0ECF4E10C9492195E
:10298000EC01CB01209719F40E949313B8C0FE010B
:10299000E60FF71F9E0122503109E217F30708F4F2
:1029A000ACC0D9010D911C91119706171707B8F00B
:1029B0000530110508F49FC0A8014450510946177D
:1029C000570708F498C002501109061B170B019312
:1029D00011936D937C93CF010E942B148CC05B01EB
:1029E000A01AB10A4E01800E911EA091BE01B091B5
:1029F000BF01612C712C60E070E0109709F449C0B0
:102A0000A815B905C9F5ED90FC901197670142E052
:102A1000C40ED11CCA14DB0478F147018A189B0844
:102A2000640142E0C40ED11C1296BC90129713961A
:102A3000AC91B5E0CB16D10440F0B282A383918271
:102A40008082D9018D939C9309C00E5F1F4F0E0D9C
:102A50001F1DF90111830083EB2DFA2F61157105FC
:102A600031F0DB011396FC93EE93129744C0F09380
:102A7000BF01E093BE013FC06D917C911197661636
:102A8000770608F43B01BD0112960D90BC91A02D74
:102A9000B4CF6091BC017091BD0168157905E9F46E
:102AA00068167906D0F4409100015091010141155A
:102AB000510541F44DB75EB7609104017091050175
:102AC000461B570BE417F507C0F4F093BD01E093E4
:102AD000BC01F901918380830EC00E9493137C0195
:102AE000009759F0A801BE010E949015CE010E94E6
:102AF0002B14C70104C0CE0102C080E090E0CDB726
:102B0000DEB7EEE00C94AE19662777270C942D17EC
:102B10009111DEC3803219F089508550D0F70895A5
:102B2000FB01DC0102C001900D9241505040D8F7EA
:102B30000895FB01DC0101900D920020E1F708955A
:102B4000FB01DC014150504048F001900D92002003
:102B5000C9F701C01D9241505040E0F708956F92AF
:102B60007F929F92AF92BF92CF92DF92EF92FF92AD
:102B70000F931F93CF93DF93CDB7DEB729970FB68F
:102B8000F894DEBF0FBECDBF6A01B22E102F0C33FA
:102B900020F4FF24F394F00E02C04CE3F42E0F2D2A
:102BA00027E0AE014F5F5F4F0E9490187981272F79
:102BB0002970213031F0E1FC06C0E0FC06C060E085
:102BC00005C06DE203C06BE201C060E2AE2DA071F2
:102BD00073FF36C0662311F084E001C083E08B15DB
:102BE00010F4B81A01C0B12CA1110BC0F6018B2D45
:102BF00090E2882319F091938150FBCFCB0CD11C2C
:102C0000B12C662331F0F601608396012F5F3F4FB0
:102C10006901C6010396E2FE05C02EE4F601208399
:102C200031E404C02EE6F601208331E631832283AD
:102C3000FC012B2D30E22223F1F131932150FBCF07
:102C400072FF40C0662311F084E001C083E08B1561
:102C500010F4B81A01C0B12CA1110BC0F6018B2DD4
:102C600090E2882319F091938150FBCFCB0CD11CBB
:102C7000B12C662331F0F601608396012F5F3F4F40
:102C80006901C6010396E2FE07C029E4F60120832C
:102C90002EE4218326E406C029E6F60120832EE6F1
:102CA000218326E62283FC012B2D30E2222319F01A
:102CB00031932150FBCFFC01EB0DF11D10828EEF03
:102CC0009FEFB7C0B1E0611101C0B0E04B2F50E001
:102CD0001816190624F49C012F5F3F4F02C021E013
:102CE00030E0240F351F112329F0412F50E04F5FB2
:102CF0005F4F02C040E050E0420F531F2B2D30E0E9
:102D00004217530714F4B41A01C0B12C2E2D2871A8
:102D100059F4F6012B2D30E2222319F03193215082
:102D2000FBCFCB0CD11CB12CBB2331F0F60160835F
:102D300096012F5F3F4F6901A1110BC0F6012B2DAA
:102D400030E3222319F031932150FBCFCB0CD11C5F
:102D5000B12CF80E0A81372F3071A32E74FF03C0F7
:102D6000013309F4FA941F142CF42F2D293018F094
:102D700028E001C021E0682F392F97FF02C060E0F2
:102D800030E0462F532F612C712C3EE2932EBC0174
:102D9000621B71099B01DC01A41BB50BE1E0F0E0B3
:102DA000EC0FFD1FAE0FBF1FE12EF12CF194E1944B
:102DB000F1084F3FFFEF5F0731F4F6019082B60153
:102DC0006F5F7F4F6B01841795074CF02417350711
:102DD00034F4BD01660D771DFB01118101C010E3C4
:102DE00041505109FFEF6F1A7F0AB6016F5F7F4FA5
:102DF0004E155F0524F0F60110836B01DACF4817FA
:102E0000590739F4063320F4053319F4A11001C031
:102E100011E3F6011083FB018B2D90E2882319F05A
:102E200091938150FBCFFB01EB0DF11D108280E0EF
:102E300090E029960FB6F894DEBF0FBECDBFDF91AC
:102E4000CF911F910F91FF90EF90DF90CF90BF90A7
:102E5000AF909F907F906F900895A0E0B0E0E3E383
:102E6000F7E10C9494198B016115710521F0DB01D8
:102E70008C9311969C93EC015E01BFEFAB1ABB0AD9
:102E80007501C8808C2D90E00E948815892B11F067
:102E9000E501F2CFEDE2CE1208C07E01F2E0EF0EC6
:102EA000F11CC980DD24D39409C02BE2C21205C0F5
:102EB0007E0142E0E40EF11CC980D12CE70121978C
:102EC00043E050E064E573E0CE010E946B19892B6A
:102ED000C1F4239645E050E06FE473E0CE010E9418
:102EE0006B19892B09F425960115110519F0D801E4
:102EF000CD93DC93D11006C160E070E080E89FE7DD
:102F00000AC143E050E06CE473E0CE010E946B190B
:102F1000892B59F40115110509F4F9C0B2E0EB0E43
:102F2000F11CF801F182E082F2C0F70160E070E08C
:102F3000CB01C0E0D0E07F01A0EDAA2EAC0C29E0CF
:102F40002A1530F14D2D4260B42E2D2D2870D2FE61
:102F500004C0211125C0219623C021112197A5E08D
:102F6000B0E09B01AC010E948319660F771F881F98
:102F7000991F6A0D711D811D911D6839A9E97A0794
:102F80008A07A9E19A0760F0BD2DB660BB2E08C084
:102F90002EEFA2120AC0D3FC50C04D2D4860B42EB3
:102FA0003196D701CC90DB2CC6CF2C2D2F7D25342C
:102FB00009F043C0A081AD3241F4BD2DB061DB2EDC
:102FC0007F0122E0E20EF11C0CC07F01AB3231F038
:102FD0004FEFE41AF40A21E030E006C0A2E0EA0E66
:102FE000F11CA18122E030E0A053AA3018F0E21ACF
:102FF000F30A23C0F70120E030E02038BCE03B07B3
:103000005CF4A901440F551F440F551F240F351FB1
:10301000220F331F2A0F311DAF014F5F5F4F7A011F
:10302000A081A053AA3010F4FA01E7CFD4FE03C068
:10303000319521953109C20FD31FD1FE09C0011569
:10304000110531F0E1E0EE1AF108D801ED92FC92A1
:103050000E94F2102D2D2370233019F04B015C01DA
:1030600006C04B015C01B7FAB094B7F8B09420E009
:1030700030E0A901C501B4010E948610882309F43B
:103080003EC0D7FF06C0D195C195D1090BE613E02C
:1030900002C003E813E06801B8E1CB1AD10890E25E
:1030A000E92EF12CCE15DF0574F0F801259135914C
:1030B00045915491C501B4010E94A4114B015C01DA
:1030C000CE19DF09EFCF04501109F594E7940C15E0
:1030D0001D0541F78A2D880F8B2D881F8F3F49F0E2
:1030E00020E030E0A901C501B4010E9486108111E1
:1030F00006C082E290E09093C1018093C001C501B7
:10310000B40109C060E070E080E89FEF04C060E0B7
:1031100070E080EC9FE7CDB7DEB7ECE00C94B0191F
:10312000283008F027E03327DA01990F311D87FD99
:10313000916000966105710539F432602E5F3D9310
:1031400030E32A95E1F708959F3F30F0803871050C
:10315000610509F03C5F3C5F3D93913008F0806869
:10316000911DDF93CF931F930F93FF92EF92192F2F
:10317000987F9695E92F96959695E90FFF27EF5141
:10318000FC4F99273327EE24FF24A701E701059080
:103190000894079428F4360FE71EF81E491F511DA6
:1031A000660F771F881F991F0694A1F70590079453
:1031B00028F4E70EF81E491F561FC11D770F881F00
:1031C000991F661F0694A1F70590079428F4F80E3E
:1031D000491F561FC71FD11D880F991F661F771FD4
:1031E0000694A1F70590079420F4490F561FC71FB6
:1031F000D81F990F661F771F881F0694A9F784911F
:103200001095177041F0D695C79557954795F79447
:10321000E7941A95C1F7E7E8F3E0689415901591E3
:1032200035916591959105907FE27395E118F10ACA
:10323000430B560BC90BD009C0F7E10CF11E431F1D
:10324000561FC91FD01D7EF4703311F48A95E6CF46
:10325000E894015030F0080F0AF40027021708F430
:10326000202F2395022F7A3328F079E37D932A9536
:10327000E9F710C07D932A9589F60694979567958E
:10328000379517951794E118F10A430B560BC90BA4
:10329000D00998F023957E9173957A3308F070E306
:1032A0007C932013B8F77E9170617D9330F0839505
:1032B00071E37D9370E32A95E1F71124EF90FF907D
:1032C0000F911F91CF91DF91992787FD90950895D8
:1032D000992788270895FB01DC014150504088F070
:1032E0008D9181341CF08B350CF4805E65916134D6
:1032F0001CF06B350CF4605E861B611171F3990B49
:103300000895881BFCCF0E94C519A59F900DB49FFE
:10331000900DA49F800D911D112408952F923F922E
:103320004F925F926F927F928F929F92AF92BF92D5
:10333000CF92DF92EF92FF920F931F93CF93DF9381
:10334000CDB7DEB7CA1BDB0B0FB6F894DEBF0FBEDE
:10335000CDBF09942A88398848885F846E847D842B
:103360008C849B84AA84B984C884DF80EE80FD802D
:103370000C811B81AA81B981CE0FD11D0FB6F894A3
:10338000DEBF0FBECDBFED010895A29FB001B39F78
:10339000C001A39F700D811D1124911DB29F700D5E
:1033A000811D1124911D0895F894FFCF0000C201E2
:1033B000800000E100000000000001012B003D0042
:1033C0002D002A002F005E002E2E2E2E2E2E2E2EA9
:1033D0002E2E2E2E2E2E2E2E0000000000BB0802B8
:1033E00009E508F508D108E20800000000B60EF96A
:1033F0000F290F970FDF0F00FFFFFFFFFFFFFFFFFA
:10340000FFFFFFFFFFFFFFFFFFFFFFFFFFFFFFFFCC
:10341000FFFFFFFFFFFFFFFFFFFFFFFFFFFFFFFFBC
:10342000FFFFFFFFFFFFFFFFFFFFFFFFFFFFFFFFAC
:10343000FFFFFFFFFFFFFFFFFFFFFFFFFFFFFFFF9C
:1070000055C000006EC000006CC000006AC00000E7
:1070100068C0000066C0000064C0000062C00000DC
:1070200060C000005EC00000EEC400005AC0000056
:1070300058C0000056C0000054C0000052C00000FC
:1070400050C0000078C000004CC000004AC00000E2
:1070500048C0000046C0000044C0000042C000001C
:1070600040C000003EC000003CC000003AC000002C
:1070700038C0000036C0000034C0000032C000003C
:1070800030C000002EC000002CC000002AC000004C
:1070900028C0000026C0000024C0000022C000005C
:1070A00020C000001EC000001CC0000011241FBE34
:1070B000CFEFDAE0DEBFCDBF11E0A0E0B1E0EAE261
:1070C000FFE702C005900D92A83AB107D9F711E089
:1070D000A8EAB1E001C01D92AE3BB107E1F78FD342
:1070E00022C78ECFF89410926F00109281001092F8
:1070F00085001092840081E085BF15BE47985D9A97
:10710000289A0C94000008952091B2013091B301A7
:107110002F5F3F4F3093B3012093B201932F37FF7E
:1071200003C08EEF831B982F990F921710F4479886
:107130000895479A08951F920F920FB60F92112447
:107140002F938F939F93EF93FF931092850010924C
:1071500084008091A8019091A901009741F00197C6
:107160009093A9018093A801892B09F45D9A8091DD
:10717000AA019091AB01009741F001979093AB0168
:107180008093AA01892B09F4289AE0E0F0E0859128
:1071900094918F5F9F4F49F08091AC019091AD0128
:1071A00001969093AD018093AC01FF91EF919F9177
:1071B0008F912F910F900FBE0F901F90189584E024
:1071C0008093E9000DC08091E8008B778093E80000
:1071D00003C08EB3882351F08091E80082FFF9CF7D
:1071E0008091E80085FFEFCF8091F1000895982FFE
:1071F00083E08093E9008091E80085FD0DC08091D7
:10720000E8008E778093E80003C08EB3882369F08E
:107210008091E80080FFF9CF9093F1005D9884E6BB
:1072200090E09093A9018093A80108954F925F92F6
:107230006F927F928F929F92AF92BF92CF92DF9286
:10724000EF92FF920F931F93CF93DF9384E080938D
:10725000E9008091E80082FF57C2289884E690E018
:107260009093AB018093AA01AADF182F853481F493
:107270008CE49DE19093AD018093AC0107B600FCD6
:10728000FDCFF999FECF81E180935700E89503C0C7
:10729000843519F494DF8DE00DC28C34E1F3803530
:1072A000D1F3843721F484E4A2DF80E003C2813685
:1072B00011F489E5FFC18134B1F481DF182F7FDF3C
:1072C00090E0880F991FAA2797FDA095BA2F312F1C
:1072D000330F20E0442737FD4095542F822B932B0A
:1072E000A42BB52BB8C1803711F483E5E3C18335F6
:1072F00049F4C0E0D1E089917ADF21E0C730D207BC
:10730000D1F7D9C1863521F481E371DF80E3D2C1A1
:10731000833731F487E86BDF85E969DF8EE1CAC125
:107320008536B9F4E0E0F0E093E085E09093570013
:10733000E89507B600FCFDCF80935700E89507B6A7
:1073400000FCFDCFE058FF4FA0E7E030FA0771F7EF
:10735000A2CF823739F4E1E0F0E089E08093570072
:107360008491A8C1863439F4E0E0F0E089E08093AC
:10737000570084919FC18E3439F4E3E0F0E089E056
:1073800080935700849196C1813539F4E2E0F0E0B2
:1073900089E08093570084918DC1823631F489E56C
:1073A00026DF80E024DF80E885C1823419F087364B
:1073B00009F0E5C01092AD011092AC0100DF082F7A
:1073C000FEDEF82EFCDE682E8554823008F071C196
:1073D000902F80E0CF2DD0E0C82BD92B10926F00DA
:1073E000173609F04BC081E180935700E895DD2402
:1073F000CC24C3943FC0E090AE01F090AF01009167
:10740000B0011091B101B6E46B16D9F4ED2DF0E0A6
:10741000EE29FF29E4918E2FEADEDD2081F082E063
:1074200090E0A0E0B0E0E80EF91E0A1F1B1FE092FA
:10743000AE01F092AF010093B0011093B101DC24D2
:1074400018C0D801C701B695A7959795879555D5CA
:10745000CEDE82E090E0A0E0B0E0E80EF91E0A1F68
:107460001B1FE092AE01F092AF010093B0011093A8
:10747000B1012197209709F0BECF7DC08090AE0169
:107480009090AF01A090B001B090B10196E4691660
:1074900009F05DC083E0F40180935700E89507B6DA
:1074A00000FCFDCF54C0F6E46F1661F5772031F192
:1074B000E090AE01F090AF010091B0011091B101E8
:1074C0007EDED82ECC24852D90E08C299D29F701D5
:1074D0000C0140925700E895112482E090E0A0E072
:1074E000B0E0E80EF91E0A1F1B1FE092AE01F092F9
:1074F000AF010093B0011093B10102C060DE582EBD
:10750000742423C0E090AE01F090AF010091B0016F
:107510001091B10116950795F794E79450DE682F06
:10752000C701F3D48091AE019091AF01A091B00159
:10753000B091B1010296A11DB11D8093AE0190934F
:10754000AF01A093B001B093B101219704C05524BD
:10755000772444244394209709F0A5CF96E4691634
:1075600041F485E0F40180935700E89507B600FCEC
:10757000FDCF8DE03CDE82E080936F009CC08334C1
:1075800071F40091AE011091AF0119DE90E021E09D
:10759000F8010C0120935700E89511247CCE833626
:1075A00019F5E090AE01F090AF010091B00110919B
:1075B000B10105DEF701E16090E021E00C012093CC
:1075C0005700E895112482E090E0A0E0B0E0E80EDA
:1075D000F91E0A1F1B1FE092AE01F092AF0100934B
:1075E000B0011093B10157CE8D3661F4E091AE0138
:1075F000F091AF0185E080935700E89507B600FC55
:10760000FDCF49CE823551F4E091AE01F091AF014A
:1076100005911491812FEBDD802F4CC0843421F52E
:10762000E090AE01F090AF010091B0011091B10176
:1076300016950795F794E794C2DD682FC70165D4C6
:107640008091AE019091AF01A091B001B091B101D4
:107650000296A11DB11D8093AE019093AF01A0933E
:10766000B001B093B10117CE843609F5E090AE01B8
:10767000F090AF010091B0011091B101D801C701A4
:10768000B695A7959795879538D4B1DD82E090E0BF
:10769000A0E0B0E0E80EF91E0A1F1B1FE092AE0149
:1076A000F092AF010093B0011093B10104C08B318F
:1076B00011F08FE39CDD83E08093E9009091E80076
:1076C0008091E8008E778093E80095FF04C010C099
:1076D0008EB38823C9F08091E80080FFF9CF8091B4
:1076E000E8008E778093E80003C08EB3882361F0B2
:1076F0008091E80080FFF9CF84E08093E9008091D9
:10770000E8008B778093E800DF91CF911F910F9174
:10771000FF90EF90DF90CF90BF90AF909F908F90B1
:107720007F906F905F904F9008959091B601892F50
:107730008F77813249F58091B7018032A1F0813293
:1077400019F5913A09F58091E800877F8093E80068
:107750008DE091E067E070E007D28091E8008B77E0
:107760008093E8000895913279F48091E800877F52
:107770008093E8008DE091E067E070E059D280915D
:10778000E8008E778093E800089582E061EC42E0A3
:10779000B1D083E061E842E1ADD084E060E842E14D
:1077A000A9C084B7877F84BF88E10FB6F89480931F
:1077B0006000109260000FBE20E880E090E00FB6FD
:1077C000F89420936100809361000FBE81E085BF33
:1077D00092E095BF3F9A209A559AE1E6F0E0208327
:1077E000108247985D9A289A109289008AEF8093B8
:1077F000880090936F0083E080938100ECC04091FB
:10780000000850910108109201081092000824B756
:1078100014BE88E10FB6F894809360001092600067
:107820000FBE822F90E0FC01E270F07021FD14C0C9
:10783000213019F4859194910BC0283069F480911E
:10784000090190910A014817590731F085919491E7
:107850008F5F9F4F09F046DCA4DF78941092AD0152
:107860001092AC010CC0E2DC36D38091AC01909157
:10787000AD0181549F4110F01092140145DC8091BC
:107880001401882381F78091E00081608093E000FB
:1078900029DC80E090E00895FA01923049F09330BD
:1078A00061F09130F9F485E191E022E130E01EC011
:1078B00087E291E02EE330E019C0882329F485E6C1
:1078C00091E024E030E012C0813029F489E691E0B3
:1078D00022E230E00BC0823029F48DE891E028E10B
:1078E00030E004C080E090E020E030E091838083CD
:1078F000C90108958093E9008091EB008160809335
:10790000EB001092ED006093EC004093ED0080914D
:10791000EE00881F8827881F08958091B60188236C
:107920008CF403C08EB38823B1F08091E80082FF0D
:10793000F9CF8091E8008B778093E80008958EB3AB
:10794000882349F08091E80080FFF9CF8091E8001A
:107950008E778093E8000895EF92FF920F931F9324
:1079600045D04CD008ED10E0F80180818F778083FE
:1079700080818068808380818F7D808319BC1EBA5E
:107980001092B40180EEE82EF12CF70180818B7FFC
:107990008083F80180818160808380E060E042E044
:1079A000A9DFE1EEF0E080818E7F8083E2EEF0E0FF
:1079B000808181608083808188608083F7018081FD
:1079C0008E7F8083F8018081806180831F910F9179
:1079D000FF90EF900895E7EDF0E080818160808373
:1079E0008AE482BF81E08093B501B6CFE8EDF0E094
:1079F00080818E7F80831092E20008951092DA00D9
:107A00001092E10008951F920F920FB60F92112469
:107A10002F933F934F935F936F937F938F939F9396
:107A2000AF93BF93EF93FF938091DA0080FF1BC069
:107A30008091D80080FF17C08091DA008E7F8093FC
:107A4000DA008091D90080FF0BC080E189BD82E11E
:107A500089BD09B400FEFDCF81E08EBB3BD203C0DF
:107A600019BC1EBA37D28091E10080FF17C0809107
:107A7000E20080FF13C08091E2008E7F8093E200DD
:107A80008091E20080618093E2008091D800806262
:107A90008093D80019BC85E08EBB1CD28091E10098
:107AA00084FF2CC08091E20084FF28C080E189BD62
:107AB00082E189BD09B400FEFDCF8091D8008F7DA1
:107AC0008093D8008091E1008F7E8093E1008091C7
:107AD000E2008F7E8093E2008091E20081608093DB
:107AE000E2008091B401882331F48091E30087FDA6
:107AF00002C081E001C084E08EBBECD18091E10046
:107B000083FF21C08091E20083FF1DC08091E100CE
:107B1000877F8093E10082E08EBB1092B401809158
:107B2000E1008E7F8093E1008091E2008E7F809360
:107B3000E2008091E20080618093E20080E060E0FA
:107B400042E0D8DEC7D1FF91EF91BF91AF919F91F5
:107B50008F917F916F915F914F913F912F910F90F6
:107B60000FBE0F901F9018959C014091BC01509141
:107B7000BD014617570718F4F90190E044C061159C
:107B8000710511F0AB01F8CF8091E8008E778093FA
:107B9000E80040E050E0F0CF8EB3882309F444C001
:107BA000853009F443C08091E80083FF02C081E082
:107BB00008958091E80082FD31C08091E80080FF47
:107BC00022C08091F3009091F200782F60E0292F7D
:107BD00030E0262B372B07C081918093F100415074
:107BE00050402F5F3F4F4115510519F028303105A6
:107BF00098F390E02830310509F491E08091E80095
:107C00008E778093E8004115510531F6992321F6CE
:107C100005C08EB3882341F0853041F08091E800A3
:107C200082FFF7CF80E0089582E0089583E0089511
:107C30009C016115710529F48091E8008B77809390
:107C4000E800F90126C08EB3882391F1853091F1C7
:107C50008091E80083FF02C081E008958091E800F0
:107C600082FFF1CF06C08091F10081936150704096
:107C700059F02091F3008091F200322F20E090E043
:107C8000822B932B892B79F78091E8008B77809357
:107C9000E80061157105B9F605C08EB3882341F07F
:107CA000853041F08091E80080FFF7CF80E00895B3
:107CB00082E0089583E008950F931F93DF93CF939D
:107CC00000D0CDB7DEB7E6EBF1E08091F100819313
:107CD00081E0EE3BF807C9F728DD8091E80083FFDB
:107CE000E4C08091B6019091B701953009F46DC060
:107CF000963040F4913081F1913070F0933009F07A
:107D0000D4C02AC0983009F4A3C0993009F4B2C095
:107D1000963009F0CAC07CC0803809F4C6C08238E9
:107D200009F0C3C08091BA0187708093E900809107
:107D3000EB001092E9002091E800277F2093E800F3
:107D400090E025E0969587952A95E1F781708093DC
:107D5000F1001092F10087C0882319F0823009F0F9
:107D6000A4C08F71823009F0A0C08091B80188232F
:107D700031F52091BA01277009F497C02093E900EA
:107D80008091EB0080FF1BC0933021F48091EB00C9
:107D9000806213C08091EB0080618093EB0081E0F2
:107DA00090E002C0880F991F2A95E2F78093EA00BD
:107DB0001092EA008091EB0088608093EB001092B3
:107DC000E9008091E800877F51C0882309F06DC0E9
:107DD0001091B8011F770FB7F8948091E800877F62
:107DE0008093E8009ADD8091E80080FFFCCF8091CD
:107DF000E3008078812B8093E30080688093E30028
:107E0000112311F482E001C083E08EBB0FBF4DC08F
:107E10008058823008F049C08091B8019091B90132
:107E20006091BA01AE014F5F5F4F36DDBC01009734
:107E300009F43BC08091E800877F8093E800898146
:107E40009A8192DE8091E8008B778093E8002DC0C4
:107E5000803859F58091E800877F8093E800809111
:107E6000B4018093F1008091E8008E778093E80060
:107E700054DD1BC08823C9F49091B8019230A8F456
:107E80008091E800877F8093E8009093B40145DDFE
:107E90008091B401882331F48091E30087FD02C012
:107EA00081E001C084E08EBB70DC8091E80083FF3C
:107EB0000AC08091EB0080628093EB008091E80023
:107EC000877F8093E8000F900F90CF91DF911F91F3
:107ED0000F91089508951F938EB3882361F0109138
:107EE000E9001092E9008091E80083FF01C0E4DE20
:107EF00017701093E9001F910895F999FECF92BD74
:107F000081BDF89A992780B50895262FF999FECF5B
:107F10001FBA92BD81BD20BD0FB6F894FA9AF99AA6
:107F20000FBE01960895F894FFCF4341544552493E
:107F30004E410077770008000000000000080112A1
:107F40000110010200000841233600010002010077
:107F50000109023E00020100803209040000010212
:107F60000201000524001001042402040524060077
:107F700001070582030800FF09040100020A00004E
:107F80000007050402100001070583021000010428
:107F90000309042203410072006400750069006E49
:107FA000006F0020004C0065006F006E00610072E1
:107FB0000064006F00000018034100720064007547
:107FC0000069006E006F0020004C004C0043000070
:027FD0000000AF
:00000001FF
